BL51 BANKED LINKER/LOCATER V6.22.4.0                                                    05/10/2023  16:26:10  PAGE 1


BL51 BANKED LINKER/LOCATER V6.22.4.0, INVOKED BY:
C:\KEIL_V5\C51\BIN\BL51.EXE .\Objects\STARTUP.obj, .\Objects\main.obj, .\Objects\1602.obj, .\Objects\uart.obj, .\Objects
>> \AM2301.obj TO .\Objects\Template PRINT (.\Listings\Template.m51) RAMSIZE (256)


MEMORY MODEL: SMALL


INPUT MODULES INCLUDED:
  .\Objects\STARTUP.obj (?C_STARTUP)
  .\Objects\main.obj (MAIN)
  .\Objects\1602.obj (1602)
  .\Objects\uart.obj (UART)
  .\Objects\AM2301.obj (AM2301)
  C:\KEIL_V5\C51\LIB\C51S.LIB (?C_INIT)
  C:\KEIL_V5\C51\LIB\C51S.LIB (?C?CLDPTR)
  C:\KEIL_V5\C51\LIB\C51S.LIB (?C?CLDOPTR)
  C:\KEIL_V5\C51\LIB\C51S.LIB (?C?UIDIV)


LINK MAP OF MODULE:  .\Objects\Template (?C_STARTUP)


            TYPE    BASE      LENGTH    RELOCATION   SEGMENT NAME
            -----------------------------------------------------

            * * * * * * *   D A T A   M E M O R Y   * * * * * * *
            REG     0000H     0008H     ABSOLUTE     "REG BANK 0"
            DATA    0008H     000BH     UNIT         ?DT?AM2301
            DATA    0013H     0004H     UNIT         ?DT?MAIN
            DATA    0017H     0003H     UNIT         _DATA_GROUP_
            DATA    001AH     0001H     UNIT         ?DT?UART
            IDATA   001BH     0001H     UNIT         ?STACK

            * * * * * * *   C O D E   M E M O R Y   * * * * * * *
            CODE    0000H     0003H     ABSOLUTE     
            CODE    0003H     001EH     UNIT         ?PR?_LCD_DELAY_MS?1602
                    0021H     0002H                  *** GAP ***
            CODE    0023H     0003H     ABSOLUTE     
            CODE    0026H     00F2H     UNIT         ?PR?LCD_DISPLAY?MAIN
            CODE    0118H     009BH     UNIT         ?C?LIB_CODE
            CODE    01B3H     008CH     UNIT         ?C_C51STARTUP
            CODE    023FH     006BH     UNIT         ?PR?READ_SENSOR?AM2301
            CODE    02AAH     005FH     UNIT         ?PR?MAIN?MAIN
            CODE    0309H     0053H     UNIT         ?PR?UART?UART
            CODE    035CH     0038H     UNIT         ?PR?READ_SENSORDATA?AM2301
            CODE    0394H     0028H     UNIT         ?PR?LCD1602_INIT?1602
            CODE    03BCH     0028H     UNIT         ?PR?_LCD1602_WRITE_STRING?1602
            CODE    03E4H     0023H     UNIT         ?PR?_SENDARRAY?UART
            CODE    0407H     001EH     UNIT         ?PR?_DELAY_N1MS?AM2301
            CODE    0425H     001BH     UNIT         ?PR?_LCD1602_WRITE_COM?1602
            CODE    0440H     001AH     UNIT         ?PR?SENDDATA?MAIN
            CODE    045AH     0019H     UNIT         ?PR?_LCD1602_WRITE_DAT?1602
            CODE    0473H     0017H     UNIT         ?PR?_DELAY_MS?MAIN
            CODE    048AH     0016H     UNIT         ?PR?UART_INIT?UART
            CODE    04A0H     0013H     UNIT         ?C_INITSEG
            CODE    04B3H     0012H     UNIT         ?PR?_LCD_POS?1602
            CODE    04C5H     000CH     UNIT         ?CO?MAIN
BL51 BANKED LINKER/LOCATER V6.22.4.0                                                  05/10/2023  16:26:10  PAGE 2


            CODE    04D1H     000AH     UNIT         ?PR?_LCD_DELAY?1602
            CODE    04DBH     000AH     UNIT         ?PR?_DELAY_N10US?AM2301
            CODE    04E5H     0008H     UNIT         ?PR?_SENDBYTE?UART



OVERLAY MAP OF MODULE:   .\Objects\Template (?C_STARTUP)


SEGMENT                                  DATA_GROUP 
  +--> CALLED SEGMENT                  START    LENGTH
------------------------------------------------------
?C_C51STARTUP                          -----    -----
  +--> ?PR?MAIN?MAIN
  +--> ?C_INITSEG

?PR?MAIN?MAIN                          -----    -----
  +--> ?PR?LCD1602_INIT?1602
  +--> ?PR?UART_INIT?UART
  +--> ?CO?MAIN
  +--> ?PR?_LCD1602_WRITE_STRING?1602
  +--> ?PR?READ_SENSOR?AM2301
  +--> ?PR?SENDDATA?MAIN
  +--> ?PR?LCD_DISPLAY?MAIN
  +--> ?PR?_DELAY_MS?MAIN

?PR?LCD1602_INIT?1602                  -----    -----
  +--> ?PR?_LCD1602_WRITE_COM?1602
  +--> ?PR?_LCD_DELAY_MS?1602

?PR?_LCD1602_WRITE_COM?1602            -----    -----
  +--> ?PR?_LCD_DELAY?1602

?PR?_LCD1602_WRITE_STRING?1602         0017H    0003H
  +--> ?PR?_LCD_POS?1602
  +--> ?PR?_LCD1602_WRITE_DAT?1602

?PR?_LCD_POS?1602                      -----    -----
  +--> ?PR?_LCD1602_WRITE_COM?1602

?PR?_LCD1602_WRITE_DAT?1602            -----    -----
  +--> ?PR?_LCD_DELAY?1602

?PR?READ_SENSOR?AM2301                 -----    -----
  +--> ?PR?_DELAY_N1MS?AM2301
  +--> ?PR?_DELAY_N10US?AM2301
  +--> ?PR?READ_SENSORDATA?AM2301

?PR?READ_SENSORDATA?AM2301             -----    -----
  +--> ?PR?_DELAY_N10US?AM2301

?PR?SENDDATA?MAIN                      -----    -----
  +--> ?PR?_SENDBYTE?UART
  +--> ?PR?_SENDARRAY?UART

?PR?_SENDARRAY?UART                    0017H    0003H
  +--> ?PR?_SENDBYTE?UART
BL51 BANKED LINKER/LOCATER V6.22.4.0                                                  05/10/2023  16:26:10  PAGE 3



?PR?LCD_DISPLAY?MAIN                   -----    -----
  +--> ?PR?_LCD_POS?1602
  +--> ?PR?_LCD1602_WRITE_DAT?1602



SYMBOL TABLE OF MODULE:  .\Objects\Template (?C_STARTUP)

  VALUE           TYPE          NAME
  ----------------------------------

  -------         MODULE        ?C_STARTUP
  C:01B3H         SEGMENT       ?C_C51STARTUP
  I:001BH         SEGMENT       ?STACK
  C:0000H         PUBLIC        ?C_STARTUP
  D:00E0H         SYMBOL        ACC
  D:00F0H         SYMBOL        B
  D:0083H         SYMBOL        DPH
  D:0082H         SYMBOL        DPL
  N:0000H         SYMBOL        IBPSTACK
  N:0100H         SYMBOL        IBPSTACKTOP
  N:0080H         SYMBOL        IDATALEN
  C:01B6H         SYMBOL        IDATALOOP
  N:0000H         SYMBOL        PBPSTACK
  N:0100H         SYMBOL        PBPSTACKTOP
  N:0000H         SYMBOL        PDATALEN
  N:0000H         SYMBOL        PDATASTART
  N:0000H         SYMBOL        PPAGE
  N:0000H         SYMBOL        PPAGEENABLE
  D:00A0H         SYMBOL        PPAGE_SFR
  D:0081H         SYMBOL        SP
  C:01B3H         SYMBOL        STARTUP1
  N:0000H         SYMBOL        XBPSTACK
  N:0000H         SYMBOL        XBPSTACKTOP
  N:0000H         SYMBOL        XDATALEN
  N:0000H         SYMBOL        XDATASTART
  C:0000H         LINE#         126
  C:01B3H         LINE#         133
  C:01B5H         LINE#         134
  C:01B6H         LINE#         135
  C:01B7H         LINE#         136
  C:01B9H         LINE#         185
  C:01BCH         LINE#         196
  -------         ENDMOD        ?C_STARTUP

  -------         MODULE        MAIN
  C:0000H         SYMBOL        _ICE_DUMMY_
  D:0090H         PUBLIC        P1
  D:00A0H         PUBLIC        P2
  D:00B0H         PUBLIC        P3
  C:0440H         PUBLIC        SendData
  D:00A8H         PUBLIC        IE
  D:0013H         PUBLIC        Temperature
  D:00B8H         PUBLIC        IP
  C:02AAH         PUBLIC        main
  C:0026H         PUBLIC        LCD_display
BL51 BANKED LINKER/LOCATER V6.22.4.0                                                  05/10/2023  16:26:10  PAGE 4


  D:0098H         PUBLIC        SCON
  D:0088H         PUBLIC        TCON
  D:0015H         PUBLIC        Humidity
  C:0473H         PUBLIC        _delay_ms
  B:00A0H.0       PUBLIC        RY1
  B:00A0H.1       PUBLIC        RY2
  D:00C8H         PUBLIC        T2CON
  D:00D0H         PUBLIC        PSW
  -------         PROC          _DELAY_MS
  D:0006H         SYMBOL        xms
  -------         DO            
  D:0005H         SYMBOL        i
  -------         ENDDO         
  C:0473H         LINE#         9
  C:0473H         LINE#         10
  C:0473H         LINE#         12
  C:047EH         LINE#         13
  C:0489H         LINE#         14
  -------         ENDPROC       _DELAY_MS
  -------         PROC          MAIN
  C:02AAH         LINE#         19
  C:02AAH         LINE#         20
  C:02AAH         LINE#         21
  C:02AEH         LINE#         23
  C:02B1H         LINE#         24
  C:02B4H         LINE#         27
  C:02C0H         LINE#         28
  C:02CDH         LINE#         30
  C:02CDH         LINE#         31
  C:02CDH         LINE#         32
  C:02D0H         LINE#         34
  C:02D5H         LINE#         35
  C:02D5H         LINE#         36
  C:02D8H         LINE#         37
  C:02DBH         LINE#         38
  C:02DDH         LINE#         40
  C:02DDH         LINE#         41
  C:02E0H         LINE#         42
  C:02E0H         LINE#         45
  C:02EEH         LINE#         46
  C:02FAH         LINE#         48
  C:02FDH         LINE#         49
  C:0300H         LINE#         51
  C:0307H         LINE#         52
  -------         ENDPROC       MAIN
  -------         PROC          SENDDATA
  C:0440H         LINE#         56
  C:0440H         LINE#         57
  C:0440H         LINE#         58
  C:0445H         LINE#         59
  C:044AH         LINE#         60
  C:0455H         LINE#         61
  -------         ENDPROC       SENDDATA
  -------         PROC          LCD_DISPLAY
  C:0026H         LINE#         65
  C:0026H         LINE#         66
  C:0026H         LINE#         68
BL51 BANKED LINKER/LOCATER V6.22.4.0                                                  05/10/2023  16:26:10  PAGE 5


  C:002DH         LINE#         69
  C:003FH         LINE#         70
  C:005EH         LINE#         71
  C:0063H         LINE#         72
  C:0075H         LINE#         74
  C:007BH         LINE#         75
  C:007BH         LINE#         76
  C:008BH         LINE#         77
  C:008BH         LINE#         78
  C:0090H         LINE#         79
  C:0092H         LINE#         80
  C:0092H         LINE#         81
  C:0092H         LINE#         82
  C:0092H         LINE#         83
  C:0094H         LINE#         85
  C:0094H         LINE#         86
  C:0099H         LINE#         87
  C:009EH         LINE#         88
  C:00B0H         LINE#         89
  C:00B0H         LINE#         90
  C:00B0H         LINE#         91
  C:00B0H         LINE#         92
  C:00B0H         LINE#         93
  C:00B2H         LINE#         95
  C:00B2H         LINE#         96
  C:00C3H         LINE#         97
  C:00C3H         LINE#         98
  C:00C8H         LINE#         99
  C:00C8H         LINE#         100
  C:00C8H         LINE#         101
  C:00C8H         LINE#         102
  C:00CAH         LINE#         104
  C:00CAH         LINE#         105
  C:00CFH         LINE#         106
  C:00E1H         LINE#         107
  C:0100H         LINE#         108
  C:0105H         LINE#         109
  C:0117H         LINE#         110
  C:0117H         LINE#         111
  C:0117H         LINE#         112
  -------         ENDPROC       LCD_DISPLAY
  -------         ENDMOD        MAIN

  -------         MODULE        1602
  C:0000H         SYMBOL        _ICE_DUMMY_
  D:0080H         PUBLIC        P0
  D:0090H         PUBLIC        P1
  D:00B0H         PUBLIC        P3
  C:045AH         PUBLIC        _LCD1602_Write_Dat
  C:0425H         PUBLIC        _LCD1602_Write_Com
  D:00A8H         PUBLIC        IE
  C:0394H         PUBLIC        LCD1602_Init
  D:00B8H         PUBLIC        IP
  C:04D1H         PUBLIC        _LCD_Delay
  D:0098H         PUBLIC        SCON
  D:0088H         PUBLIC        TCON
  C:0007H         PUBLIC        _LCD_Delay_Ms
BL51 BANKED LINKER/LOCATER V6.22.4.0                                                  05/10/2023  16:26:10  PAGE 6


  B:00B0H.4       PUBLIC        LCD_EN
  B:00B0H.5       PUBLIC        LCD_RS
  B:00B0H.6       PUBLIC        LCD_RW
  D:00C8H         PUBLIC        T2CON
  C:03BCH         PUBLIC        _LCD1602_Write_String
  C:04B3H         PUBLIC        _lcd_pos
  D:00D0H         PUBLIC        PSW
  -------         PROC          _LCD_DELAY
  D:0006H         SYMBOL        num
  C:04D1H         LINE#         3
  C:04D1H         LINE#         4
  C:04D1H         LINE#         5
  C:04DAH         LINE#         6
  -------         ENDPROC       _LCD_DELAY
  C:0003H         SYMBOL        L?0024
  -------         PROC          L?0023
  -------         ENDPROC       L?0023
  C:0003H         SYMBOL        L?0024
  -------         PROC          _LCD_DELAY_MS
  D:0006H         SYMBOL        ms
  -------         DO            
  D:0005H         SYMBOL        n
  -------         ENDDO         
  C:0007H         LINE#         8
  C:0007H         LINE#         9
  C:0007H         LINE#         11
  C:0011H         LINE#         12
  C:0011H         LINE#         13
  C:0019H         LINE#         14
  C:0019H         LINE#         15
  C:001AH         LINE#         16
  C:001BH         LINE#         17
  C:001CH         LINE#         18
  C:001DH         LINE#         19
  C:0020H         LINE#         20
  C:0020H         LINE#         21
  -------         ENDPROC       _LCD_DELAY_MS
  -------         PROC          LCD1602_INIT
  C:0394H         LINE#         23
  C:0394H         LINE#         24
  C:0394H         LINE#         25
  C:0396H         LINE#         26
  C:0398H         LINE#         27
  C:039DH         LINE#         28
  C:03A0H         LINE#         29
  C:03A5H         LINE#         30
  C:03A8H         LINE#         31
  C:03ADH         LINE#         32
  C:03B0H         LINE#         33
  C:03B5H         LINE#         34
  -------         ENDPROC       LCD1602_INIT
  -------         PROC          _LCD1602_WRITE_COM
  D:0007H         SYMBOL        com
  C:0425H         LINE#         38
  C:0425H         LINE#         39
  C:0425H         LINE#         40
  C:0427H         LINE#         41
BL51 BANKED LINKER/LOCATER V6.22.4.0                                                  05/10/2023  16:26:10  PAGE 7


  C:0429H         LINE#         42
  C:042AH         LINE#         43
  C:042BH         LINE#         44
  C:042DH         LINE#         45
  C:0431H         LINE#         46
  C:0433H         LINE#         47
  C:0437H         LINE#         48
  C:0439H         LINE#         49
  -------         ENDPROC       _LCD1602_WRITE_COM
  -------         PROC          _LCD1602_WRITE_DAT
  D:0007H         SYMBOL        dat
  C:045AH         LINE#         52
  C:045AH         LINE#         53
  C:045AH         LINE#         54
  C:045CH         LINE#         55
  C:045EH         LINE#         56
  C:0460H         LINE#         57
  C:0464H         LINE#         58
  C:0466H         LINE#         59
  C:046AH         LINE#         60
  C:046CH         LINE#         61
  -------         ENDPROC       _LCD1602_WRITE_DAT
  -------         PROC          _LCD_POS
  D:0006H         SYMBOL        x
  D:0005H         SYMBOL        y
  C:04B3H         LINE#         65
  C:04B5H         LINE#         66
  C:04B5H         LINE#         67
  C:04B8H         LINE#         68
  C:04B8H         LINE#         69
  C:04BBH         LINE#         70
  C:04BDH         LINE#         72
  C:04BDH         LINE#         73
  C:04C4H         LINE#         74
  C:04C4H         LINE#         75
  -------         ENDPROC       _LCD_POS
  -------         PROC          _LCD1602_WRITE_STRING
  D:0007H         SYMBOL        x
  D:0005H         SYMBOL        y
  D:0017H         SYMBOL        s
  C:03BCH         LINE#         77
  C:03C2H         LINE#         78
  C:03C2H         LINE#         79
  C:03C5H         LINE#         81
  C:03D0H         LINE#         82
  C:03D0H         LINE#         83
  C:03E1H         LINE#         84
  C:03E3H         LINE#         85
  -------         ENDPROC       _LCD1602_WRITE_STRING
  -------         ENDMOD        1602

  -------         MODULE        UART
  C:0000H         SYMBOL        _ICE_DUMMY_
  D:0090H         PUBLIC        P1
  D:00A0H         PUBLIC        P2
  D:00B0H         PUBLIC        P3
  B:00A8H.7       PUBLIC        EA
BL51 BANKED LINKER/LOCATER V6.22.4.0                                                  05/10/2023  16:26:10  PAGE 8


  D:00A8H         PUBLIC        IE
  C:03E4H         PUBLIC        _SendArray
  B:00A8H.4       PUBLIC        ES
  D:00B8H         PUBLIC        IP
  B:0098H.0       PUBLIC        RI
  B:0098H.1       PUBLIC        TI
  C:04E5H         PUBLIC        _SendByte
  D:0099H         PUBLIC        SBUF
  D:0098H         PUBLIC        SCON
  D:0089H         PUBLIC        TMOD
  D:0088H         PUBLIC        TCON
  C:0309H         PUBLIC        uart
  D:008DH         PUBLIC        TH1
  B:0098H.7       PUBLIC        SM0
  B:0098H.6       PUBLIC        SM1
  D:008BH         PUBLIC        TL1
  C:048AH         PUBLIC        uart_init
  B:0088H.6       PUBLIC        TR1
  B:00A0H.0       PUBLIC        RY1
  B:00A0H.1       PUBLIC        RY2
  B:0098H.4       PUBLIC        REN
  D:00C8H         PUBLIC        T2CON
  D:00D0H         PUBLIC        PSW
  -------         PROC          UART_INIT
  C:048AH         LINE#         3
  C:048AH         LINE#         4
  C:048AH         LINE#         5
  C:048DH         LINE#         6
  C:0490H         LINE#         7
  C:0493H         LINE#         8
  C:0495H         LINE#         9
  C:0497H         LINE#         10
  C:0499H         LINE#         11
  C:049BH         LINE#         12
  C:049DH         LINE#         13
  C:049FH         LINE#         14
  -------         ENDPROC       UART_INIT
  -------         PROC          _SENDBYTE
  D:0007H         SYMBOL        dat
  C:04E5H         LINE#         16
  C:04E5H         LINE#         17
  C:04E5H         LINE#         18
  C:04E7H         LINE#         19
  C:04EAH         LINE#         20
  C:04ECH         LINE#         21
  -------         ENDPROC       _SENDBYTE
  -------         PROC          _SENDARRAY
  D:0017H         SYMBOL        Array
  D:0005H         SYMBOL        Size
  -------         DO            
  D:0006H         SYMBOL        i
  -------         ENDDO         
  C:03E4H         LINE#         23
  C:03EAH         LINE#         24
  C:03EAH         LINE#         27
  C:03F1H         LINE#         28
  C:03F1H         LINE#         29
BL51 BANKED LINKER/LOCATER V6.22.4.0                                                  05/10/2023  16:26:10  PAGE 9


  C:0403H         LINE#         30
  C:0406H         LINE#         31
  -------         ENDPROC       _SENDARRAY
  -------         PROC          UART
  -------         DO            
  D:0007H         SYMBOL        Res
  D:001AH         SYMBOL        Rec_state
  -------         ENDDO         
  C:0309H         LINE#         33
  C:0312H         LINE#         38
  C:0315H         LINE#         39
  C:0315H         LINE#         40
  C:0317H         LINE#         41
  C:0319H         LINE#         43
  C:031CH         LINE#         44
  C:031CH         LINE#         45
  C:031FH         LINE#         46
  C:0321H         LINE#         47
  C:0329H         LINE#         48
  C:0329H         LINE#         49
  C:032CH         LINE#         50
  C:032EH         LINE#         51
  C:0333H         LINE#         52
  C:0333H         LINE#         53
  C:0341H         LINE#         54
  C:0341H         LINE#         55
  C:0345H         LINE#         56
  C:0349H         LINE#         57
  C:034DH         LINE#         58
  C:0351H         LINE#         59
  C:0355H         LINE#         60
  C:0355H         LINE#         61
  C:0355H         LINE#         62
  C:0355H         LINE#         64
  C:0355H         LINE#         66
  C:0355H         LINE#         67
  -------         ENDPROC       UART
  -------         ENDMOD        UART

  -------         MODULE        AM2301
  C:0000H         SYMBOL        _ICE_DUMMY_
  D:0090H         PUBLIC        P1
  D:00B0H         PUBLIC        P3
  D:0008H         PUBLIC        Sys_CNT
  D:00A8H         PUBLIC        IE
  D:00B8H         PUBLIC        IP
  B:0090H.0       PUBLIC        DHT_PIN
  C:0407H         PUBLIC        _Delay_N1ms
  D:0098H         PUBLIC        SCON
  D:0088H         PUBLIC        TCON
  D:000AH         PUBLIC        Sensor_Check
  D:000BH         PUBLIC        Sensor_AnswerFlag
  D:000CH         PUBLIC        DHT_Negative_Flag
  C:035CH         PUBLIC        Read_SensorData
  D:000DH         PUBLIC        Sensor_Data
  C:023FH         PUBLIC        Read_Sensor
  D:00C8H         PUBLIC        T2CON
BL51 BANKED LINKER/LOCATER V6.22.4.0                                                  05/10/2023  16:26:10  PAGE 10


  D:0012H         PUBLIC        Sensor_ErrorFlag
  C:04DBH         PUBLIC        _Delay_N10us
  D:00D0H         PUBLIC        PSW
  -------         PROC          _DELAY_N10US
  D:0007H         SYMBOL        t
  C:04DBH         LINE#         12
  C:04DBH         LINE#         13
  C:04DBH         LINE#         14
  C:04E1H         LINE#         15
  C:04E1H         LINE#         16
  C:04E2H         LINE#         17
  C:04E4H         LINE#         18
  -------         ENDPROC       _DELAY_N10US
  -------         PROC          _DELAY_N1MS
  D:0006H         SYMBOL        t
  -------         DO            
  D:0004H         SYMBOL        i
  D:0006H         SYMBOL        j
  -------         ENDDO         
  C:0407H         LINE#         20
  C:0407H         LINE#         21
  C:0407H         LINE#         24
  C:0410H         LINE#         25
  C:0424H         LINE#         26
  -------         ENDPROC       _DELAY_N1MS
  -------         PROC          READ_SENSORDATA
  -------         DO            
  D:0003H         SYMBOL        i
  D:0002H         SYMBOL        cnt
  D:0004H         SYMBOL        buffer
  D:0005H         SYMBOL        tmp
  -------         ENDDO         
  C:035CH         LINE#         28
  C:035CH         LINE#         29
  C:035CH         LINE#         32
  C:035EH         LINE#         33
  C:035FH         LINE#         34
  C:035FH         LINE#         35
  C:0361H         LINE#         36
  C:0364H         LINE#         37
  C:0364H         LINE#         38
  C:036FH         LINE#         39
  C:036FH         LINE#         40
  C:036FH         LINE#         41
  C:036FH         LINE#         42
  C:036FH         LINE#         44
  C:0374H         LINE#         47
  C:0376H         LINE#         48
  C:0379H         LINE#         49
  C:0379H         LINE#         50
  C:037AH         LINE#         51
  C:037AH         LINE#         52
  C:037CH         LINE#         53
  C:037FH         LINE#         54
  C:037FH         LINE#         55
  C:0386H         LINE#         56
  C:0386H         LINE#         57
BL51 BANKED LINKER/LOCATER V6.22.4.0                                                  05/10/2023  16:26:10  PAGE 11


  C:0386H         LINE#         58
  C:0386H         LINE#         59
  C:0386H         LINE#         60
  C:038AH         LINE#         61
  C:038DH         LINE#         62
  C:0391H         LINE#         63
  C:0393H         LINE#         64
  -------         ENDPROC       READ_SENSORDATA
  -------         PROC          READ_SENSOR
  -------         DO            
  D:0001H         SYMBOL        i
  -------         ENDDO         
  C:023FH         LINE#         66
  C:023FH         LINE#         67
  C:023FH         LINE#         70
  C:0241H         LINE#         71
  C:0248H         LINE#         74
  C:024AH         LINE#         75
  C:024FH         LINE#         77
  C:0251H         LINE#         79
  C:0254H         LINE#         82
  C:0257H         LINE#         83
  C:0257H         LINE#         84
  C:025AH         LINE#         85
  C:025EH         LINE#         87
  C:0261H         LINE#         88
  C:0261H         LINE#         89
  C:0272H         LINE#         90
  C:0272H         LINE#         91
  C:0272H         LINE#         92
  C:0274H         LINE#         93
  C:0274H         LINE#         94
  C:0274H         LINE#         95
  C:0279H         LINE#         97
  C:027CH         LINE#         98
  C:027CH         LINE#         99
  C:028DH         LINE#         100
  C:028DH         LINE#         101
  C:0290H         LINE#         102
  C:0293H         LINE#         103
  C:0293H         LINE#         104
  C:0293H         LINE#         108
  C:0295H         LINE#         109
  C:0295H         LINE#         110
  C:029EH         LINE#         111
  C:02A4H         LINE#         112
  C:02A4H         LINE#         114
  C:02A4H         LINE#         115
  C:02A7H         LINE#         116
  C:02A7H         LINE#         117
  C:02A9H         LINE#         118
  -------         ENDPROC       READ_SENSOR
  -------         ENDMOD        AM2301

  -------         MODULE        ?C?CLDPTR
  C:0118H         PUBLIC        ?C?CLDPTR
  -------         ENDMOD        ?C?CLDPTR
BL51 BANKED LINKER/LOCATER V6.22.4.0                                                  05/10/2023  16:26:10  PAGE 12



  -------         MODULE        ?C?CLDOPTR
  C:0131H         PUBLIC        ?C?CLDOPTR
  -------         ENDMOD        ?C?CLDOPTR

  -------         MODULE        ?C?UIDIV
  C:015EH         PUBLIC        ?C?UIDIV
  -------         ENDMOD        ?C?UIDIV

Program Size: data=28.0 xdata=0 code=1259
LINK/LOCATE RUN COMPLETE.  0 WARNING(S),  0 ERROR(S)
