:030000000201B347
:0C01B300787FE4F6D8FD75811A0201FA8D
:0C04C50048756D693A0054656D703A008E
:0804A000021500000213000028
:10047300D3EF9400EE64809480400B7D6EDDFEEF3D
:060483001F70ED1E80EA6F
:010489002250
:1002AA00C2A0C2A112039412048A7BFF7A0479C500
:1002BA00E4FDFF1203BC7BFF7A0479CB7D01E4FFE6
:1002CA001203BC12023FE50F30E708750C01530F09
:1002DA007F8003E4F50CE50DFE7C00E4250EF5169F
:1002EA00EC3EF515E50FFEE42510F514EC3EF5138A
:0F02FA001204401200267FD07E0712047380C4C6
:100440007FFF1204E5AF0C1204E57B007A00790D02
:0A0450007D041203E47FEE0204E5D0
:10002600E4FD7F071204B3AE15AF167C007D6412A3
:10003600015EEF2430FF12045AAE15AF167C007D28
:100046006412015E7E007F0ACFCDCFCECCCE1201E8
:100056005EEF2430FF12045A7F2E12045AAE15AFFB
:10006600167C007D0A12015EED2430FF12045AE56B
:100076000C64017037AE13AF14FC7D6412015EEFA1
:100086004E7D0170097F071204B37F2D80197F060C
:100096001204B37F2D12045AAE13AF147C007D6494
:1000A60012015EEF2430FF12045A802FAE13AF14F4
:1000B6007C007D6412015EEF4E7D0170077F0812A1
:1000C60004B380177F071204B3AE13AF147C007D10
:1000D6006412015EEF2430FF12045AAE13AF147C93
:1000E600007D6412015E7E007F0ACFCDCFCECCCEDE
:1000F60012015EEF2430FF12045A7F2E12045AAE0C
:1001060013AF147C007D0A12015EED2430FF120449
:020116005A226B
:0A04D100EF1F70011E144E70F72299
:040003007F017E00FB
:10000700EF1FAA0670011E4A600FE4FDEDC394FAC4
:0900170050EE000000000D80F322
:0100200022BD
:10039400C2B6C2B47F381204251200037F38120497
:1003A400251200037F0C1204251200037F0112049E
:0803B400257F017E0002000715
:10042500C2B5C2B400008F8000000000D2B4000045
:0B0435000000C2B47F057E000204D16D
:10045A00D2B5C2B48F8000000000D2B40000000000
:09046A00C2B47F057E000204D13A
:1004B300AE07ED7005EE24808003EE24C0FF120426
:0204C3002522F0
:1003BC008B178A1889191204B3AB17AA18A919122A
:1003CC00011860130519E5197002051814F91201CA
:0803DC0018FF12045A80E2220E
:0304A800011A0036
:10048A00438920758DFD758BFDC29FD29ED28ED277
:06049A009CD2AFD2AC229F
:0804E5008F993099FDC29922A4
:0603E4008B178A1889192D
:1003EA00E4FEEEC39D5015AB17AA18A9198E8275A3
:0C03FA008300120131FF1204E50E80E6C2
:0104060022D3
:03002300020309CC
:09030900C0E0C0D075D000C007AF
:10031200309840C298AF99BFFF05751A018034E545
:100322001AB40108BFEE05751A008027E51AB40158
:1003320022EF14600E14600F14601024037010D2A8
:10034200A08010C2A0800CD2A18008C2A18004C2E9
:03035200A0C2A1A5
:07035500D007D0D0D0E03248
:0704AB00050D000000000038
:0A04DB00AE071FEE60030080F72259
:10040700D3EF9400EE940040147D7C7C00ED1D70CA
:0D041700011CED4C70F7EF1F70E61E80E336
:0104240022B5
:10035C00E4FCFBE4FA20900B0AC3EA942C7480941E
:10036C008140F27F021204DBE4FD3090010DE4FACF
:10037C003090070AEAC394C840F6EC25E0FCED4245
:07038C00040BBB08CEAF0417
:010393002247
:10023F00C2907F127E00120407D2907F021204DB5D
:10024F00D290E4F50B20904D750B01F508F50920C0
:10025F0090130509E50970020508D3942CE508945D
:10026F000140EC8019E4F508F5093090170509E510
:10027F000970020508D3942CE508940140EC75121F
:10028F00017F0022E4F912035C740D29F8A6070917
:0A029F00B905F38003E4F50B7F01BD
:0102A9002232
:1001BF000202AAE493A3F8E493A34003F68001F2AA
:1001CF0008DFF48029E493A3F85407240CC8C33341
:1001DF00C4540F4420C8834004F456800146F6DF10
:1001EF00E4800B01020408102040809004A0E47EFC
:1001FF00019360BCA3FF543F30E509541FFEE49305
:10020F00A360010ECF54C025E060A840B8E493A3CB
:10021F00FAE493A3F8E493A3C8C582C8CAC583CAF6
:10022F00F0A3C8C582C8CAC583CADFE9DEE780BEAE
:0104B2000049
:10011800BB010689828A83E0225002E722BBFE02E5
:09012800E32289828A83E4932218
:10013100BB010CE58229F582E5833AF583E0225083
:1001410006E92582F8E622BBFE06E92582F8E222CD
:0D015100E58229F582E5833AF583E49322E7
:10015E00BC000BBE0029EF8DF084FFADF022E4CC85
:10016E00F875F008EF2FFFEE33FEEC33FCEE9DEC4E
:10017E00984005FCEE9DFE0FD5F0E9E4CEFD22ED94
:10018E00F8F5F0EE8420D21CFEADF075F008EF2FDE
:10019E00FFED33FD4007985006D5F0F222C398FDCF
:0501AE000FD5F0EA226C
:00000001FF
