:020000040800F2
:10000000180B0020CD010008C9070008E106000810
:10001000C50700087D020008BF12000800000000AC
:10002000000000000000000000000000890D000832
:100030001904000800000000730C0008F10E00080D
:10004000E7010008E7010008E7010008E7010008F0
:10005000E7010008E7010008E7010008E7010008E0
:10006000E7010008E7010008E7010008E7010008D0
:10007000E7010008E7010008E7010008E7010008C0
:10008000E7010008E7010008E7010008E7010008B0
:10009000E7010008E7010008E7010008E7010008A0
:1000A000E7010008E7010008E7010008E701000890
:1000B000E7010008E7010008E7010008E701000880
:1000C000E7010008E7010008E7010008E701000870
:1000D000E7010008E7010008E7010008E701000860
:1000E000E7010008E7010008E7010008E701000850
:1000F000E7010008E7010008E7010008E701000840
:10010000E7010008E7010008E7010008E70100082F
:10011000E7010008550F0008E7010008E7010008A3
:10012000E7010008E7010008E7010008E70100080F
:1001300000F002F800F03AF80AA090E8000C8244BF
:100140008344AAF10107DA4501D100F02FF8AFF29C
:10015000090EBAE80F0013F0010F18BFFB1A43F0A5
:10016000010318474C3200006C320000103A24BFE3
:1001700078C878C1FAD8520724BF30C830C144BF0C
:1001800004680C607047000000230024002500264E
:10019000103A28BF78C1FBD8520728BF30C148BFEA
:1001A0000B6070471FB51FBD10B510BD00F033F8D0
:1001B0001146FFF7F7FF01F005F900F051F803B41D
:1001C000FFF7F2FF03BC01F08BF8000009488047FD
:1001D00009480047FEE7FEE7FEE7FEE7FEE7FEE729
:1001E000FEE7FEE7FEE7FEE704480549054A064B41
:1001F00070470000F50E00083101000818050020C6
:10020000180B0020180700201807002070477047BF
:10021000704770477047754600F02CF8AE460500F1
:100220006946534620F00700854618B020B5FFF711
:10023000DBFFBDE820404FF000064FF000074FF015
:1002400000084FF0000B21F00701AC46ACE8C009F4
:10025000ACE8C009ACE8C009ACE8C0098D467047FD
:1002600010B50446AFF300802046BDE81040FFF70C
:10027000A6BF000000487047B404002000BFFEE79E
:1002800010B5002404221103114800F099F904E08C
:10029000601CC4B2012001F06FF80E48006808B17C
:1002A000642CF5DB642C01DB012010BD002404E08C
:1002B000601CC4B2012001F05FF80648006808B96C
:1002C000642CF5DB642C01DB0120EEE70020ECE779
:1002D000001001403801224208B50121102000F031
:1002E000D9FC4FF48040ADF8000010208DF80300D9
:1002F00003208DF802006946064800F08EF84FF49E
:100300008041044800F0EAF900F06CF8FFF7B8FF0C
:1003100008BD00000010014010B5002404E0601C7E
:10032000C4B2012001F028F80D48006808B1642C1F
:10033000F5DB002404E0601CC4B2012001F01CF8CD
:100340000748006808B9642CF5DB282001F014F890
:100350000348006808B1012010BD0020FCE7000040
:100360003801224270B50024002506E06006040E24
:10037000FFF7D2FF0443681CC5B2082DF6DB204608
:1003800070BD7CB5044600F02DF8FFF779FF28BB5F
:10039000002505E0FFF7E6FF0DF80500681CC5B273
:1003A000052DF7DB9DF800009DF8011008449DF82D
:1003B000021008449DF8031008449DF80410884278
:1003C0000ED19DF8000020709DF8010060709DF82E
:1003D0000200A0709DF80300E07001E001207CBDE8
:1003E0000020FCE710B510229102084800F0E8F860
:1003F000002007490860142000F098FF01200549FB
:10040000C1F8B8011E2000F0B7FF10BD0010014078
:10041000B80122420000224270472DE9F041024615
:1004200000250026002000230024002791F803C0A7
:100430000CF00F0591F803C00CF0100CBCF1000F8C
:1004400003D091F802C04CEA050591F800C0BCF158
:10045000000F31D0146800202BE04FF0010C0CFA93
:1004600000F3B1F800C00CEA03069E4220D18300DD
:100470004FF00F0C0CFA03F7BC4305FA03FC4CEAEF
:10048000040491F803C0BCF1280F06D14FF0010C11
:100490000CFA00FCC2F814C00AE091F803C0BCF1E9
:1004A000480F05D14FF0010C0CFA00FCC2F810C047
:1004B000401C0828D1D31460B1F800C0BCF1FF0F74
:1004C00034DD546800202EE000F1080C4FF00108E4
:1004D00008FA0CF3B1F800C00CEA03069E4221D1E1
:1004E00083004FF00F0C0CFA03F7BC4305FA03FC32
:1004F0004CEA040491F803C0BCF1280F05D100F1C7
:10050000080C08FA0CF8C2F8148091F803C0BCF18A
:10051000480F07D100F1080C4FF0010808FA0CF859
:10052000C2F81080401C0828CED35460BDE8F0818A
:10053000F0B50A46002300240021002500F0004603
:10054000B6F1004F02D11D4EF16901E01B4E7168FA
:10055000C0F3034583B200F44016B6F5401F08D13E
:1005600021F07061154E766826F07066134F7E603C
:1005700012E000F48016B6F5801F06D1032606FAB5
:1005800005F4A14341F0706106E0460D360103FA1F
:1005900006F6B14341F0706122B1460D360103FA0F
:1005A00006F6314300F00046B6F1004F02D1034E8B
:1005B000F16101E0014E7160F0BD000000000140FA
:1005C000F8B505460C4616463E49681A8D4223D0BA
:1005D00009DC3D48284480B1B0F5806F12D0B0F5F9
:1005E000006F2DD113E0B0F5806F1AD0B0F5006F19
:1005F0001CD0B0F5406F23D11DE00121042000F094
:1006000049FB1DE00121082000F044FB18E0012116
:10061000102000F03FFB13E00121202000F03AFB06
:100620000EE00121402000F035FB09E0012180208F
:1006300000F030FB04E00121080200F02BFB00BFBA
:1006400000BF224885420FD1082C01D1012000E0D3
:100650000020102C01D1012100E00021084318B135
:1006600001211B48FFF764FF17484042854206D12D
:10067000B4F5004F03D101211548FFF759FF124887
:100680004042854211D1B4F5005F01D1012000E064
:100690000020B4F5804F01D1012100E00021084382
:1006A00018B101210B48FFF743FF8DF80360ADF847
:1006B000004003208DF8020069462846FFF7ADFE92
:1006C000F8BD00000014014000F8FEBF000C01401E
:1006D0000002300000043000416170470161704742
:1006E00000BFFEE710B54FF400710C48FFF7F6FFAE
:1006F0004FF480710948FFF7F1FF00F041F84FF423
:1007000000710648FFF7E8FF00F03AF84FF48071F7
:100710000248FFF7E1FF00F033F810BD0010014080
:1007200010B54FF400710848FFF7D6FF4FF4807101
:100730000548FFF7D3FF00F023F84FF4007102489B
:10074000FFF7CCFF10BD00000010014010B54FF4C2
:1007500000710A48FFF7C2FF00F012F84FF48071F1
:100760000648FFF7BBFF00F00BF84FF48071034819
:10077000FFF7B2FF00F004F810BD000000100140C8
:10078000032000BF011EA0F10102D0B2FAD17047D0
:1007900010B5102211010948FFF712FF4FF48071C4
:1007A0000648FFF79BFF102204210548FFF708FFCA
:1007B00004210348FFF792FF10BD0000000801402C
:1007C0000014014000BFFEE77047000002490143EA
:1007D000024A1160704700000000FA050CED00E0CD
:1007E00070B500240CE0002506E00020074901EB6D
:1007F000C5010855681CC5B2802DF6DB601CC4B26B
:10080000082CF0DB00F0DCF870BD000034000020A4
:10081000F0B514460B46CF1701EB5777C7F3C70265
:10082000CF1701EB5777FF10A1EBC707FEB20123EB
:10083000B340DDB24CB1134B03EBC0039B5C2B43C5
:10084000104F07EBC007BB541AE00E4B03EBC0037D
:100850009B5CDB430B4F07EBC007BB54094B03EB1F
:10086000C0039B5C2B43074F07EBC007BB54054BF2
:1008700003EBC0039B5CDB43024F07EBC007BB5499
:10088000F0BD00003400002008B50121102000F068
:1008900001FA4FF44070ADF8000010208DF803000D
:1008A00003208DF8020069463E48FFF7B6FD4FF47D
:1008B00040713C48FFF712FFC82000F037FD0021CF
:1008C000AE2000F0BAF90021084600F0B6F9002188
:1008D000102000F0B2F90021402000F0AEF9002114
:1008E000812000F0AAF90021CF2000F0A6F9002114
:1008F000A12000F0A2F90021C82000F09EF90021FB
:10090000A62000F09AF90021A82000F096F9002115
:100910003F2000F092F90021D32000F08EF9002151
:10092000084600F08AF90021D52000F086F9002160
:10093000802000F082F90021D92000F07EF900210A
:10094000F12000F07AF90021DA2000F076F9002198
:10095000122000F072F90021DB2000F06EF9002176
:10096000402000F06AF90021202000F066F9002103
:10097000022000F062F900218D2000F05EF90021D4
:10098000142000F05AF90021A42000F056F90021AB
:10099000A62000F052F9FFF723FF0021AF2000F05E
:1009A0004CF908BD0010014010B50246012000E0DE
:1009B00050430B1EA1F10104E1B2F9D110BD0000BA
:1009C00070B500242BE004F1B001C8B2002100F0A2
:1009D00034F90021084600F030F90021102000F021
:1009E0002CF9FFF77FFE782000F0D0F9FFF7AEFE7C
:1009F000402000F0CBF9FFF7A9FE002509E00949E6
:100A000001EBC501085D00F0C1F9FFF79FFE681C0E
:100A1000C5B2802DF3DBFFF783FE601CC4B2082C47
:100A2000D1DB70BD340000202DE9FE4F074688461B
:100A300092461C460197CDF80080082C02D14FF059
:100A400006091FE02046E31704EB5373DB10214631
:100A50004FEAE47C04EB5C7C4FEAEC0CA4EBCC0C9E
:100A6000BCF1000F02D04FF0010C01E04FF0000C80
:100A70006344224604EBD27C4FEA6C0C03FB0CF37C
:100A800003F0FF09AAF12000C6B200255EE0082CA1
:100A900007D106EB46002F4901EB400010F805B0E6
:100AA0001DE00C2C07D106EB46002B4901EB800022
:100AB00010F805B013E0102C05D1284800EB061003
:100AC00010F805B00BE0182C07D106EBC60024493E
:100AD00001EB800010F805B001E0BDE8FE8F0020BA
:100AE00002901CE00BF0010028B1414638460C9AF8
:100AF000FFF78EFE09E00C9808B9012000E0002005
:100B0000024641463846FFF783FE4FEA6B0B08F179
:100B1000010000F0FF080298401CC0B20290029849
:100B20000828DFDB781CC7B2082C0BD004EBD4718B
:100B30004A100199791A8A4204D1019F009808301D
:100B4000C0B20090DDF80080681CC5B24D459EDB48
:100B500000BFC2E7A0150008C81700083C1C000829
:100B60002C2200082DE9FF4F82B0064691461F4611
:100B7000DDE90F4A4FF0000B082C01D14FF0020BBA
:100B8000002530E0781B401EC1B20A20FFF70CFFA1
:100B9000B9FBF0F00A21B0FBF1F201FB1208B8F149
:100BA000000F0ED104EBD4710BEB610101FB056169
:100BB000C8B223463022CDE900A40399FFF734FFE1
:100BC0000FE004EBD4710BEB610101FB0561C8B2CE
:100BD00008F13001CAB22346CDE900A40399FFF71A
:100BE00023FF681CC5B2BD42CCDB06B0BDE8F08F68
:100BF0002DE9F84106460F4614461D46DDF81C80D7
:100C000013E0CDF8008022782B4639463046FFF7B6
:100C10000BFF082D02D1B01DC6B205E0284605EB3A
:100C2000D07106EB6101CEB2641C2078202802DB73
:100C300020787E28E5DDBDE8F88170B505460C46D4
:100C4000FFF750FD782000F0A1F8FFF77FFD1CB101
:100C5000402000F09BF802E0002000F097F8FFF73A
:100C600075FD284600F092F8FFF770FDFFF758FD7C
:100C700070BD704729B1064AD2690243044BDA615C
:100C800004E0034AD2698243014BDA6170470000F5
:100C90000010024029B1064A92690243044B9A614E
:100CA00004E0034A92698243014B9A617047000055
:100CB0000010024030B500210022002400232D4DF9
:100CC0006D6805F00C0121B1042905D0082923D154
:100CD00005E0294D056022E0274D05601FE0254D08
:100CE0006D6805F47012234D6D6805F4803402259B
:100CF00005EB92421CB9214D554305600BE01D4D9B
:100D00006D6805F400351DB11C4D5543056002E0CA
:100D1000194D5543056002E0174D056000BF00BF47
:100D2000144D6D6805F0F0010909154D6B5C0568FF
:100D3000DD4045600F4D6D6805F4E061090A104D16
:100D40006B5C4568DD4085600A4D6D6805F4605157
:100D5000C90A0B4D6B5C4568DD40C560054D6D688B
:100D600005F44041890B074D6B5CC568B5FBF3F595
:100D7000056130BD0010024000127A0000093D00FC
:100D80001D0000202D0000207047000070B50446B3
:100D900000251FE004F0800028B14FF400710F48D7
:100DA000FFF79CFC04E04FF400710C48FFF794FC43
:100DB000FFF7E6FC4FF480710848FFF78FFCFFF760
:100DC000DFFC4FF480710548FFF786FC6006040ED7
:100DD000681CC5B2082DDDDB70BD000000100140AD
:100DE00010B500F001F810BD0CB500200190009086
:100DF0003348006840F480303149086000BF304813
:100E0000006800F4003000900198401C01900098A8
:100E100018B90198B0F5A06FF1D12948006800F425
:100E2000003010B10120009001E0002000900098F7
:100E3000012843D12348006840F010002149086090
:100E40000846006820F0030008600846006840F08B
:100E5000020008601A48406819494860084640681E
:100E600048600846406840F4806048600846406832
:100E700020F47C1048600846406840F4E810486060
:100E80000846006840F08070086000BF0C480068A9
:100E900000F000700028F9D00948406820F00300F5
:100EA000074948600846406840F00200486000BFBB
:100EB0000348406800F00C000828F9D10CBD000080
:100EC0000010024000200240042808D14FF0E02129
:100ED000096941F004014FF0E022116107E04FF091
:100EE000E021096921F004014FF0E022116170470F
:100EF0007047000010B51348006840F00100114928
:100F0000086008464068104908400E494860084695
:100F100000680E4908400B4908600846006820F444
:100F2000802008600846406820F4FE0048604FF4C6
:100F30001F008860FFF754FF4FF00060044908600D
:100F400010BD0000001002400000FFF8FFFFF6FE99
:100F500008ED00E010B5002440F22551254800F0CE
:100F600079F8002845D0234800F0A0F9C4B22248FF
:100F70000078042820DA1A2C02D11F48007888B1A2
:100F8000CF2C03D11C48007801280BD0FC2C03D1B6
:100F900019480078022805D01D2C09D11648007880
:100FA000032805D114480078401C134908701BE041
:100FB00000201149087017E04CB94FF480710F48B8
:100FC000FFF78CFB20210E48FFF788FB09E0012C7E
:100FD00007D121020948FFF77FFB20210848FFF7CE
:100FE0007BFB00200449087040F22551014800F0C5
:100FF00009F810BD005000401C000020000801400E
:10100000000C014010B50022002340F66A14A142F2
:1010100000D100BF0A1201249440A3B2DC43048033
:1010200010BD21B1828942F40052828104E082899C
:101030004DF6FF731A408281704702460020B1F5D9
:10104000007F00D100BF13880B400BB1012000E0EE
:101050000020704770B502460024002300250020C0
:1010600040F66A16B14200D100BFC1F3421501F04B
:101070001F03012606FA03F3012D02D1968933409E
:1010800006E0022D02D1168A334001E0968A3340F1
:101090000C12012606FA04F41688344013B10CB180
:1010A000012000E0002070BD2DE9F04786B0054624
:1010B0000E460024A24600BFA1460027B08900B119
:1010C00000BF2F462C8A4CF6FF700440F088044382
:1010D0002C82AC894EF6F3100440B0883189084365
:1010E000718908430443AC81AC8A4FF6FF40044049
:1010F000B0890443AC8201A8FFF7DCFD1F4887429A
:1011000002D1DDF810A001E0DDF80CA0A88900F400
:10111000004040B10AEBCA0000EB0A1031684900F8
:10112000B0FBF1F807E00AEBCA0000EB0A103168E7
:101130008900B0FBF1F86420B8FBF0F0040120094D
:10114000642101FB1089A88900F4004040B13220DD
:1011500000EBC900B0FBF1F000F00700044308E029
:10116000322000EB09106421B0FBF1F000F00F0019
:1011700004432C8106B0BDE8F08700000038014030
:101180007FB504460D464048844211D101218803B1
:10119000FFF780FD01210520FFF77CFD1822611576
:1011A0003A48FFF70DFA042211023848FFF708FA0F
:1011B0003748844211D101214804FFF75BFD01212A
:1011C0000520FFF767FD182204213048FFF7F8F9E2
:1011D000042208212D48FFF7F3F92E48844211D14B
:1011E00001218804FFF746FD01210920FFF752FD88
:1011F000182221152848FFF7E3F904225102264856
:10120000FFF7DEF92548844211D10121C804FFF718
:1012100031FD01211120FFF73DFD18222115204845
:10122000FFF7CEF9042251021D48FFF7C9F91D4806
:10123000844211D101210805FFF71CFD0121312055
:10124000FFF728FD1822A1141548FFF7B9F9042269
:1012500011461548FFF7B4F900950020ADF80C00D1
:101260000C20ADF80A000020ADF80400ADF808002D
:10127000ADF8060069462046FFF716FF012120461B
:10128000FFF7CFFE7FBD000000380140000801409D
:101290000044004000480040000C0140004C004069
:1012A00000100140005000400014014001468888B1
:1012B000C0F308007047C1F308028280704700BF86
:1012C000FEE770B504460D4629462046FFF7F3FFBA
:1012D00000BF80212046FFF7B0FE0028F9D070BD86
:1012E000014600BF7047000010B56FF00400FFF723
:1012F000EBFD0A4800680A49B0FBF1F009490870A3
:101300000846007800EB4001C1EBC0104FF6FF71BA
:1013100001EAC0000449088010BD00000000002060
:1013200000127A0014000020160000200146114A25
:1013300012884A434FF0E0235A6100229A611A460C
:10134000126942F001021A6100BF4FF0E0221069F9
:1013500000F001021AB100F48032002AF5D04FF0FB
:10136000E022126922F001024FF0E0231A6100220C
:101370009A617047160000200146114A12784A43CC
:101380004FF0E0235A6100229A611A46126942F036
:1013900001021A6100BF4FF0E022106900F0010263
:1013A0001AB100F48032002AF5D04FF0E022126921
:1013B00022F001024FF0E0231A6100229A61704787
:1013C000140000200EB50020029000240025002605
:1013D000FFF78AFF4FF4A060FFF7F8F9FFF754FA20
:1013E000FFF7FEF94FF47A70FFF7A0FF09E0012044
:1013F00010235FA2182100900846FFF7F9FBFFF7C2
:10140000DFFAFEF769FF0028F1D1FFF7C1F94FF4C9
:1014100016515A48FFF7B4FEFFF7E2F901201023F6
:1014200057A2082100901420FFF7E2FB01201023AF
:1014300056A2222100901420FFF7DAFB97E002A8C1
:10144000FEF79FFF00287DD19DF80A0000F0800084
:1014500078B101269DF80A0000F07F008DF80A009F
:10146000012010232D22082100903C20FFF7DCFAF8
:1014700008E0012010232022082100903C20FFF7E3
:10148000D3FA002601201021CDE900109DF80A2092
:10149000022308214420FFF765FB01201021CDE93C
:1014A00000109DF80B20034608215C20FFF75AFB33
:1014B00001201021CDE900109DF8082002232221EF
:1014C0004420FFF74FFB01201021CDE900109DF8CB
:1014D0000920034622215C20FFF744FBFFF770FA46
:1014E0009DF80B009DF80A1001EB810100EB41040F
:1014F0009DF809009DF8081001EB810100EB410502
:10150000FF211E48FFF7DDFE31461C48FFF7D9FEDC
:1015100029121A48FFF7D5FEE9B21848FFF7D1FEA5
:1015200021121648FFF7CDFEE1B21448FFF7C9FEBD
:10153000EE211248FFF7C5FEB4F5967F05DCB42C0A
:1015400003DB00E00FE0012000E00020124908600A
:10155000B5F52F7F04DCB5F5967F01DB012000E0B7
:1015600000200E4908604FF47A70FFF7DFFE66E74F
:10157000574149542044485431310000003801405B
:1015800054656D703A2020202E20430048756D7000
:101590003A2020202E202500A001214288812242CD
:1015A0000000000000000000002F00000000070005
:1015B000070000147F147F1400242A7F2A1200627F
:1015C000640813230036495522500000050300002B
:1015D00000001C224100000041221C000014083EB3
:1015E00008140008083E0808000000A06000000879
:1015F00008080808000060600000002010080402CD
:10160000003E5149453E0000427F4000004261518A
:101610004946002141454B31001814127F10002724
:1016200045454539003C4A494930000171090503E7
:1016300000364949493600064949291E0000363618
:10164000000000005636000000081422410000147B
:101650001414141400004122140800020151090658
:1016600000324959513E007C1211127C007F4949D9
:101670004936003E41414122007F4141221C007F0A
:1016800049494941007F09090901003E4149497A18
:10169000007F0808087F0000417F41000020404192
:1016A0003F01007F08142241007F40404040007FFE
:1016B000020C027F007F0408107F003E4141413E42
:1016C000007F09090906003E4151215E007F09198A
:1016D00029460046494949310001017F0101003F87
:1016E0004040403F001F2040201F003F4038403F07
:1016F000006314081463000708700807006151496B
:10170000454300007F41410000552A552A550000FD
:1017100041417F000004020102040040404040407B
:10172000000001020400002054545478007F484413
:10173000443800384444442000384444487F00384A
:101740005454541800087E0901020018A4A4A47C73
:10175000007F080404780000447D4000004080843D
:101760007D00007F102844000000417F4000007C85
:1017700004180478007C0804047800384444443891
:1017800000FC242424180018242418FC007C0804DD
:10179000040800485454542000043F444020003CB6
:1017A0004040207C001C2040201C003C4030403C3D
:1017B000004428102844001CA0A0A07C00446454CD
:1017C0004C44141414141414000000000000000011
:1017D000000000000000FC0000000000020000000B
:1017E000000C020C020000000000000090D0BCD0F1
:1017F000BC900003000300001824FE448C00030288
:10180000070201001824D8B04C8000030001020137
:10181000C038E438E00001020201020208060000BC
:101820000000000000000000000000F804020000BA
:1018300000010204000204F800000004020100009C
:101840009060F86090000000010000002020FC2063
:101850002000000001000000000000000000080659
:1018600000000000202020202000000000000000D8
:101870000000000000000002000000000080601C6A
:101880000200040300000000F8040404F800010250
:10189000020201000008FC00000000020302000038
:1018A00018844424180003020202020008042424BD
:1018B000D80001020202010040B088FC8000000054
:1018C000000302003C242424C4000102020201009F
:1018D000F824242CC0000102020201000C04E41CC4
:1018E0000400000003000000D8242424D8000102D2
:1018F0000202010038444444F800000302020100DF
:1019000000001000000000000200000000002000A5
:1019100000000000060000000020508804020000C3
:1019200000000102909090909000000000000000E4
:101930000002048850200002010000001804C424A2
:101940001800000002000000F804E494F80001020E
:101950000202020000E09CF080000203000003028B
:1019600004FC2424D800020302020100F804040449
:101970000C0001020202010004FC0404F80002034E
:101980000202010004FC24740C00020302020300A2
:1019900004FC24740C00020302000000F00804445C
:1019A000CC4000010202010004FC2020FC040203E0
:1019B000000003020404FC0404000202030202000B
:1019C000000404FC040406040403000004FC24D006
:1019D0000C0402030200030204FC040000000203E2
:1019E00002020203FC3CC03CFC00030003000300B5
:1019F00004FC30C4FC04020302000300F8040404E5
:101A0000F80001020202010004FC24241800020371
:101A100002000000F8848404F800010202070500B7
:101A200004FC2464980002030200030218242444E6
:101A30008C000302020201000C04FC040C000002F2
:101A40000302000004FC0000FC040001020201008B
:101A5000047C80E01C040000030000001CE03CE06B
:101A60001C00000300030000049C609C04000203AF
:101A700000030200041CE01C04000002030200003A
:101A80000C84641C04000203020203000000FE0236
:101A90000200000007040400000E30C00000000037
:101AA00000010200000202FE000000040407000022
:101AB000000402040000000000000000000000001C
:101AC00000000808080808080000020000000000E4
:101AD000000000000040A0A0C000000102020302BC
:101AE00004FC2020C00000030202010000C02020EE
:101AF000600000010202020000C02024FC0000017E
:101B00000202030200C0A0A0C00000010202020005
:101B10000020F82424040002030202000040A0A0D8
:101B2000602000070A0A0A0404FC2020C000020307
:101B3000020003020020E400000000020302000093
:101B4000000020E4000008080807000004FC80E012
:101B500020200203020003020404FC000000020231
:101B600003020200E020E020C000030003000300A5
:101B700020E02020C00002030200030200C0202059
:101B8000C00000010202010020E02020C000080F78
:101B90000A02010000C02020E0000001020A0F0834
:101BA00020E0402020000203020000000060A0A00E
:101BB00020000002020203000020F82000000000C4
:101BC0000102020020E00020E00000010202030206
:101BD00020E0208060200000030100006080E080A1
:101BE000600000030003000020608060200002030A
:101BF0000003020020E020806020080807010000A8
:101C00000020A0602000000203020200000020DE8D
:101C10000200000000070400000000FF00000000B8
:101C2000000F00000002DE2000000004070000009A
:101C30000201020404020000000000000000000095
:101C4000000000000000000000000000000000F89C
:101C500000000000000000333000000000100C06FF
:101C6000100C0600000000000000000040C078409A
:101C7000C0784000043F04043F040400007088FC66
:101C800008300000001820FF211E0000F008F000BE
:101C9000E018000000211C031E211E0000F008882F
:101CA000700000001E2123241927211010160E0099
:101CB000000000000000000000000000000000E044
:101CC0001804020000000007182040000002041859
:101CD000E00000000040201807000000404080F0B5
:101CE000804040000202010F01020200000000F0EB
:101CF000000000000101011F0101010000000000BF
:101D00000000000080B07000000000000000000033
:101D100000000000000101010101010100000000BC
:101D20000000000000303000000000000000000053
:101D300080601804006018060100000000E0100830
:101D40000810E000000F102020100F00001010F805
:101D5000000000000020203F202000000070080844
:101D600008887000003028242221300000300888C4
:101D7000884830000018202020110E000000C020EC
:101D800010F8000000070424243F240000F808880D
:101D9000880808000019212020110E0000E010889A
:101DA00088180000000F112020110E0000380808CC
:101DB000C83808000000003F0000000000708808DC
:101DC00008887000001C222121221C0000E010085D
:101DD0000810E0000000312222110F00000000C0B6
:101DE000C000000000000030300000000000008053
:101DF0000000000000008060000000000000804043
:101E0000201008000001020408102000404040405B
:101E100040404000040404040404040000081020AE
:101E200040800000002010080402010000704808F3
:101E30000808F0000000003036010000C030C8285B
:101E4000E810E0000718272423140B000000C03816
:101E5000E0000000203C23020227382008F8888890
:101E600088700000203F202020110E00C03008089C
:101E700008083800071820202010080008F8080873
:101E80000810E000203F202020100F0008F888886C
:101E9000E8081000203F20202320180008F8888838
:101EA000E8081000203F200003000000C0300808B0
:101EB0000838000007182020221E020008F8080039
:101EC0000008F808203F210101213F20000808F800
:101ED000080800000020203F202000000000080823
:101EE000F8080800C08080807F00000008F888C0E3
:101EF00028180800203F20012638200008F8080094
:101F000000000000203F20202020300008F8F800CA
:101F1000F8F80800203F003F003F200008F830C0DC
:101F20000008F808203F200007183F00E0100808CC
:101F30000810E0000F10202020100F0008F80808FB
:101F40000808F000203F210101010000E01008080E
:101F50000810E0000F18242438504F0008F8888833
:101F600088887000203F2000030C30200070880813
:101F7000080838000038202121221C00180808F821
:101F8000080818000000203F2000000008F80800A2
:101F90000008F808001F202020201F000878880073
:101FA00000C83808000007380E010000F80800F8E3
:101FB0000008F800033C0700073C0300081868808D
:101FC0008068180820302C03032C30200838C80003
:101FD000C83808000000203F200000001008080852
:101FE000C83808002038262120201800000000FEF4
:101FF000020202000000007F40404000000C30C0A0
:1020000000000000000000010638C00000020202CB
:10201000FE000000004040407F000000000004027D
:1020200002020400000000000000000000000000A8
:102030000000000080808080808080800002020498
:102040000000000000000000000000000000808090
:10205000808000000019242222223F2008F80080FE
:1020600080000000003F112020110E0000000080C1
:1020700080800000000E1120202011000000008050
:102080008088F800000E112020103F200000808082
:1020900080800000001F222222221300008080F096
:1020A000888888180020203F2020000000008080C1
:1020B00080808000006B94949493600008F8008006
:1020C00080800000203F210000203F200080989861
:1020D000000000000020203F2020000000000080C1
:1020E0009898000000C08080807F000008F8000001
:1020F00080808000203F24022D302000000808F856
:10210000000000000020203F202000008080808010
:1021100080808000203F20003F20003F80800080A2
:1021200080800000203F210000203F2000008080B0
:1021300080800000001F202020201F008080008061
:102140008000000080FFA12020110E000000008010
:1021500080808000000E112020A0FF808080800001
:102160008080800020203F2120000100000080802E
:10217000808080000033242424241900008080E023
:10218000808000000000001F2020000080800000F0
:1021900000808000001F202020103F2080808000D1
:1021A0000080808000010E300806010080800080E1
:1021B000008080800F300C030C300F000080800006
:1021C000808080000020312E0E3120008080800031
:1021D0000080808080818E701806010000808080E1
:1021E000808080000021302C22213000000000007F
:1021F000807C020200000000003F40400000000020
:10220000FF00000000000000FF0000000002027C50
:10221000800000000040403F000000000006010177
:1022200002020404000000000000000000000000A2
:10223000000000000000000000000000000000009E
:10224000000000000000000000000000000000008E
:102250000000000000F0F0F00000000000000000AE
:1022600000017F010000000000000000001C1C1C99
:102270000000000000008060301C8C60301C0C00EE
:10228000000000000000000000000000000000004E
:102290000000000000000000000000E0000000005E
:1022A00000E000000086E69F86868686E69F860020
:1022B00000011F01010101011F010100000080C098
:1022C0006020F820E0C00000000003070C18FF7039
:1022D000E18100000000070F10107F100F070000C1
:1022E0008060206080000000E02000000F3020307F
:1022F0009F70DC371030C0000000100E030007187C
:10230000101807000000C02020E0C00000000000FE
:1023100080E01F38E88703C43C040000070F181052
:10232000100B070D1010080000808C4C38000000C6
:10233000000000000000000000000000000000009D
:10234000000000000000000000000000000000008D
:10235000000080E0300804000000000000FEFF01E3
:1023600000000000000000000000030F18204000E3
:1023700000040830E08000000000000000000000C1
:1023800001FFFE0000000000004020180F030000C5
:1023900000000000000000000000C000000000007D
:1023A000004266663C18FF183C666642000000006A
:1023B000000003000000000000000000000080009A
:1023C00000000000001010101010FF10101010106E
:1023D00000000000000003000000000000000000FA
:1023E00000000000000000000000000000000000ED
:1023F0000000000000808C4C38000000000000004D
:10240000000000000000000000000000001010109C
:10241000101010101010100000000000000000004C
:1024200000000000000000000000000000000000AC
:1024300000000000000000000000000000001C1C64
:102440001C00000000000000000000000000000070
:10245000E0380C000000000080701C030000000049
:102460000060380E0100000000000000000080C085
:1024700060202060C080000000FEFF01000000001E
:1024800001FFFE000001070E181010180E070100D2
:102490000000808080C0E00000000000000000001C
:1024A00000FFFF000000000000001010101F1F10B0
:1024B000101000000080402020202060C08000001C
:1024C00000030300804020381F070000001C1A1979
:1024D00018181818181F00000080C020202060C0A5
:1024E00080000000000303001010182FE780000098
:1024F00000070F10101010180F0700000000000058
:102500000000C0E0F000000000C0B088868180FFBD
:10251000FF808000000000000010101F1F1010003E
:102520000000E060606060606060000000003F10DC
:1025300008080818F0E0000000070B101010101C2D
:102540000F030000000080C040202020E0C00000F9
:1025500000FCFF211008080818F0E0000001070C3B
:1025600018101010080F03000000C0E060606060E9
:1025700060E06000000003000000E01807000000B9
:1025800000000000001F1F00000000000080C0606D
:102590002020202060C080000087EF2C18183030E9
:1025A00068CF830000070F0810101010180F0700E5
:1025B0000000C0C020202020C0800000001F3F601D
:1025C0004040402010FFFE0000000C1C10101008BE
:1025D0000F030000000000000000000000000000E9
:1025E00000000000000E0E0E0000000000000000C1
:1025F000001C1C1C00000000000000000000000087
:102600000000000000000000000C0C0000000000B2
:10261000000000000058380000000000000000002A
:1026200000000080402010000000102844820100BB
:10263000000000000000000000000102040810007B
:1026400000000000000000000000000000848484FE
:1026500084848484848484000000000000000000DE
:10266000000000000000102040800000000000007A
:102670000000000000000182442810000000100843
:10268000040201000000000000C020201010101003
:1026900030E0C0000003030000F010080C07030046
:1026A000000000001C1C1C0000000000000000C016
:1026B000406020202040C00000FCFF01F00E03C15C
:1026C000FE03807F0001070E08111110110904029A
:1026D0000000000080E0E000000000000000807CBE
:1026E0004340477FF880000010181F1000000000D2
:1026F000131F1C1020E0E02020202060C08000007C
:1027000000FFFF10101010182FE78000101F1F107F
:1027100010101010180F0700000080C0402020206B
:102720002060E00000FCFF0100000000000001004C
:102730000001070E181010100804030020E0E0202C
:1027400020202040C080000000FFFF0000000000AB
:1027500001FFFE00101F1F10101018080E070100C7
:1027600020E0E020202020202060800000FFFF10DB
:102770001010107C00000000101F1F10101010100F
:102780001018060020E0E02020202020606080005B
:1027900000FFFF101010107C00000100101F1F1020
:1027A0000000000000000000000080C06020202029
:1027B00040E0000000FCFF0100004040C0C140407C
:1027C0000001070E181010100F0F000020E0E0208D
:1027D0000000000020E0E02000FFFF1010101010AB
:1027E00010FFFF00101F1F1000000000101F1F101F
:1027F0000000202020E0E020202000000000000059
:1028000000FFFF000000000000001010101F1F104C
:102810001010000000000000202020E0E020202018
:1028200000000000000000FFFF0000000060E080EA
:102830008080C07F3F00000020E0E020000020A05A
:102840006020200000FFFF30187CE3C00000000083
:10285000101F1F10000001131F1C181020E0E020A3
:10286000000000000000000000FFFF00000000006A
:1028700000000000101F1F1010101010101806008C
:1028800020E0E0E000000000E0E0E02000FF013F89
:10289000FEC0E01E01FFFF00101F1000031F030019
:1028A000101F1F1020E0E0C0000000000020E0200A
:1028B00000FF0003071C78E08000FF00101F1000DD
:1028C00000000000030F1F00000080C06020206097
:1028D000C080000000FEFF010000000000FFFE00BD
:1028E0000001070E181010180C07010020E0E0206E
:1028F0002020202060C0800000FFFF20202020201A
:10290000301F0F00101F1F1000000000000000000B
:10291000000080C060202060C080000000FEFF0139
:102920000000000000FFFE000001070E1111133C23
:102930007C67210020E0E0202020202060C0800073
:1029400000FFFF101030F0D0080F0700101F1F10FD
:10295000000000030F1C10100080C0602020202009
:102960004040E00000070F0C1818303060E0810094
:10297000001F0C0810101010180F07008060202096
:1029800020E0E020202060800100000000FFFF0028
:102990000000000100000000101F1F1000000000D8
:1029A00020E0E020000000000020E02000FFFF0009
:1029B000000000000000FF0000070F1810101010AA
:1029C000100807002060E0E02000000020E0602008
:1029D0000000077FF88000807C03000000000000FA
:1029E000071F1C070000000020E0E02000E0E020BE
:1029F0000020E0200007FFF8E01FFFFCE01F0000C0
:102A00000000031F0300011F03000000002060E01E
:102A1000A0000020E0602000000000038F7CF8C6CA
:102A2000010000000010181E130001171F181000ED
:102A30002060E0E02000000020E0602000000107AE
:102A40003EF8E0180700000000000010101F1F10E3
:102A50001000000000806020202020A0E0E0200086
:102A600000000000C0F03E0F0300000000101C1F1B
:102A700017101010101806000000000000FC0404DD
:102A8000040404000000000000FF0000000000003B
:102A900000000000007F404040404000000010E087
:102AA000000000000000000000000000031C608027
:102AB0000000000000000000000000030C70800017
:102AC00000000404040404FC0000000000000000F6
:102AD000000000FF00000000000040404040407F38
:102AE0000000000000000010080C040C081000009A
:102AF00000000000000000000000000000000000D6
:102B000000000000000000000000000000000000C5
:102B100000000000000000000000000000000000B5
:102B200080808080808080808080808000000004A1
:102B30000408080000000000000000000000000081
:102B40000000000000000000000000000000000085
:102B5000000000000000000000000000000098D805
:102B600044642424FCF80000000F1F181010100803
:102B70001F1F10180020E0F00000000000000000FF
:102B80000000FFFF180804040CF8F00000001F0FFD
:102B900018101010180F03000000000000000000C3
:102BA0000000000000E0F8180404043C38000000B5
:102BB00000030F0C101010100806000000000000A9
:102BC00000000020E0F0000000E0F81C040404080D
:102BD000FFFF000000030F18101010081F0F08005F
:102BE0000000000000000000000000000000E0F80D
:102BF000484444444C7870000000030F0C18101037
:102C0000100804000000000080C0602020E0C00028
:102C100000040404FFFF040404040000000010107A
:102C20001F1F101010000000000000000000000036
:102C300000000000000070F88C04048CF874040C90
:102C4000007076CF8D8D8D89C87870000020E0F0FF
:102C500000000000000000000000FFFF0804040462
:102C6000FCF8000000101F1F100000101F1F1000B4
:102C7000000000000060600000000000000004048C
:102C800004FCFC000000000000001010101F1F10CA
:102C90001010000000000000000000606000000054
:102CA00000000000040404FCFC0000000000C0C0A0
:102CB0008080C07F3F0000000020E0F000000000A6
:102CC000000000000000FFFF80C0F41C04040000AE
:102CD00000101F1F1100031F1C10100000002020F7
:102CE00020E0F000000000000000000000FFFF00F6
:102CF0000000000000001010101F1F101010000036
:102D000000000000000000000000000004FCFC08BF
:102D100004FCFC0804FCFC00101F1F10001F1F1007
:102D2000001F1F1000000000000000000000000055
:102D30000004FCFC08080404FCF8000000101F1F3D
:102D4000100000101F1F1000000000000000000015
:102D50000000000000E0F0180C04040C18F0E00083
:102D600000030F0C101010100C0F030000000000E7
:102D700000000000000000000004FCFC0804040443
:102D80000CF8F0000080FFFF889010101C0F03006B
:102D900000000000000000000000000000E0F81C3F
:102DA00004040408F8FC000000030F1810109088B9
:102DB000FFFF800000000000000000000000000095
:102DC000040404FCFC100804040C0C001010101F78
:102DD0001F101010000000000000000000000000A4
:102DE0000000000000003078CCC48484840C1C00F7
:102DF00000001E1810101011190F0600000000002E
:102E000000C000000000000000040404FFFF0404F0
:102E100004000000000000000F1F1010100C000044
:102E20000000000000000000000000000004FCFEA4
:102E300000000004FCFE000000000F1F1810100826
:102E40001F0F08000000000000000000000000004C
:102E500000040C3CFCC40000C43C0C040000000056
:102E6000010F1E0E01000000000000000000000025
:102E700000000000043CFCC400E47CFC84807C0472
:102E80000000071F070000071F07000000000000E8
:102E900000000000000000000004041C7CE4C034BA
:102EA0001C0404000010101C1601131F1C18100035
:102EB00000000000000000000000000000040C3CC6
:102EC000FCC400C43C0404000000C080C1370E01F3
:102ED00000000000000000000000000000000000F2
:102EE00000001C0404C4F47C1C0400000000101C3E
:102EF0001F17111010180E0000000000000000F84D
:102F00000C04000000000000001028EF000000008A
:102F1000000000000000003F6040000000000000D2
:102F20000000FF0000000000000000000000FF00A3
:102F300000000000000000000000FF000000000092
:102F40000000040CF8000000000000000000000079
:102F5000EF28100000000000000040603F0000006B
:102F600000000000001806020204081020203008AB
:102F70000000000000000000000000000000000051
:102F800000000000000000000000F010101010FF12
:102F900010101010F000000000000F04040404FFE3
:102FA000040404040F0000004040405F555555756F
:102FB0005555555F404040000040200F0949897930
:102FC0000909090F2040000000FE02424ACA4A4A8D
:102FD000CA4A4A4202FE000000FF40504C434040B3
:102FE0004F50505C40FF00000000F888888888FF40
:102FF00088888888F800000000001F080808087FFB
:10300000888888889F80F00080828282828282E223
:10301000A2928A8682808000000000000040807FAB
:103020000000000000000000101010FF1090088841
:103030008888FF88888808000444827F0180804057
:10304000432C1028468180000010101010D030FF53
:1030500030D0121C1010000010080402010000FF04
:10306000000001020408100004040484E43C272446
:10307000242424E40404040004020100FF090909D3
:103080000949897F0000000000FE225A8600FE9256
:1030900092929292FE00000000FF04080700FF4099
:1030A00020030C14224140000080402018068000BC
:1030B00007182040800000000100207028262120F1
:1030C0002024386000010100001012929292929226
:1030D00092121202FE0000000000003F10101010BB
:1030E0003F0040807F000000000000C080808080A2
:1030F000808080FC84808080808080C0C000000050
:10310000000000FF7F404040404040FF40404040C2
:10311000404040FF7F000000000000000000000071
:103120000000007F700000000000000000000000B0
:10313000000000000000000000000000000000FC93
:10314000F800000000000000000000000000000087
:1031500000000000FFFE020202020202020202FF61
:10316000FF020202020202020202FF03000000004C
:10317000000000001F1F040404040404040404FFEE
:10318000FF0404040404040404041F0000000000FD
:103190000000000000000000000000000000007FB0
:1031A0003F000000000000000000000000000000E0
:1031B000000000000000000000000000000000000F
:1031C00000000000000000000000000000F8F8F01F
:1031D000F07020000000000000000000000000006F
:1031E00000000000000000000000000000000000DF
:1031F000000000000000000080000000000000004F
:1032000000000000000000000000000000FFFFFFC1
:10321000FF000000000000000000000000000000AF
:10322000000000008080000000000000000000009E
:10323000000000000000000000FFFFFE060606067A
:1032400006060606060606060606060606FFFFFF33
:10325000FF06060606060606060606060606060615
:10326000060606FFFFFFFF07020000000000000047
:10327000000000000000000000FFFFFF0000000051
:1032800000000000000000000000000000FFFFFF41
:10329000FF0000000000000000000000000000002F
:1032A000000000FFFFFFFF00000000000000000022
:1032B000000000000000000000FFFFFF18181818B1
:1032C00018181818181818181818181818FFFFFFC9
:1032D000FF18181818181818181818181818181887
:1032E000181818FFFFFFFF0000000000000000009A
:1032F00000000000000000000201010000000000CA
:1033000000000000000000000000000000FFFFFFC0
:10331000FF000000000000000000000000000000AE
:10332000000000010100000000000000000000009B
:10333000000000000000000000000000000000008D
:1033400000000000000000000000000000FFFFFF80
:10335000FF0000000000000000000000000000006E
:10336000000000000000000000000000000000005D
:10337000000000000000000000000000000000004D
:10338000000000000000000000000000001F1F0FF0
:103390000F0000000000000000000000000000001E
:1033A000000000000000000000000000000000001D
:1033B000D033000800000020340000006C01000839
:1033C0000434000834000020E40A000088010008EA
:1033D00000A24A04000000000000000001020304F3
:1033E00006070809000000000000000000000000BF
:1033F000000102030401020304060708090204068F
:0434000008000000C0
:0400000508000131BD
:00000001FF
